{
  "contractName": "Market",
  "abi": [
    {
      "inputs": [],
      "stateMutability": "nonpayable",
      "type": "constructor"
    },
    {
      "anonymous": false,
      "inputs": [
        {
          "indexed": true,
          "internalType": "uint256",
          "name": "itemId",
          "type": "uint256"
        },
        {
          "indexed": true,
          "internalType": "address",
          "name": "nftContract",
          "type": "address"
        },
        {
          "indexed": true,
          "internalType": "uint256",
          "name": "tokenId",
          "type": "uint256"
        },
        {
          "indexed": false,
          "internalType": "address",
          "name": "seller",
          "type": "address"
        },
        {
          "indexed": false,
          "internalType": "address",
          "name": "owner",
          "type": "address"
        },
        {
          "indexed": false,
          "internalType": "uint256",
          "name": "price",
          "type": "uint256"
        },
        {
          "indexed": false,
          "internalType": "bool",
          "name": "on_sale",
          "type": "bool"
        },
        {
          "indexed": false,
          "internalType": "uint256",
          "name": "no_of_transfers",
          "type": "uint256"
        },
        {
          "indexed": false,
          "internalType": "uint256",
          "name": "likes",
          "type": "uint256"
        },
        {
          "indexed": false,
          "internalType": "address",
          "name": "mintedby",
          "type": "address"
        },
        {
          "indexed": false,
          "internalType": "uint256",
          "name": "ranking",
          "type": "uint256"
        }
      ],
      "name": "MarketItemCreated",
      "type": "event"
    },
    {
      "inputs": [],
      "name": "getListingPrice",
      "outputs": [
        {
          "internalType": "uint256",
          "name": "",
          "type": "uint256"
        }
      ],
      "stateMutability": "view",
      "type": "function",
      "constant": true
    },
    {
      "inputs": [
        {
          "internalType": "address",
          "name": "nftContract",
          "type": "address"
        },
        {
          "internalType": "uint256",
          "name": "tokenId",
          "type": "uint256"
        },
        {
          "internalType": "uint256",
          "name": "price",
          "type": "uint256"
        },
        {
          "internalType": "uint256",
          "name": "no_of_transfers",
          "type": "uint256"
        },
        {
          "internalType": "uint256",
          "name": "likes",
          "type": "uint256"
        }
      ],
      "name": "createMarketItem",
      "outputs": [],
      "stateMutability": "payable",
      "type": "function",
      "payable": true
    },
    {
      "inputs": [
        {
          "internalType": "address",
          "name": "nftContract",
          "type": "address"
        },
        {
          "internalType": "uint256",
          "name": "itemId",
          "type": "uint256"
        }
      ],
      "name": "createMarketSale",
      "outputs": [],
      "stateMutability": "payable",
      "type": "function",
      "payable": true
    },
    {
      "inputs": [],
      "name": "fetchMarketItems",
      "outputs": [
        {
          "components": [
            {
              "internalType": "uint256",
              "name": "itemId",
              "type": "uint256"
            },
            {
              "internalType": "address",
              "name": "nftContract",
              "type": "address"
            },
            {
              "internalType": "uint256",
              "name": "tokenId",
              "type": "uint256"
            },
            {
              "internalType": "address payable",
              "name": "seller",
              "type": "address"
            },
            {
              "internalType": "address payable",
              "name": "owner",
              "type": "address"
            },
            {
              "internalType": "uint256",
              "name": "price",
              "type": "uint256"
            },
            {
              "internalType": "bool",
              "name": "on_sale",
              "type": "bool"
            },
            {
              "internalType": "uint256",
              "name": "no_of_transfers",
              "type": "uint256"
            },
            {
              "internalType": "uint256",
              "name": "likes",
              "type": "uint256"
            },
            {
              "internalType": "address payable",
              "name": "mintedby",
              "type": "address"
            },
            {
              "internalType": "uint256",
              "name": "ranking",
              "type": "uint256"
            }
          ],
          "internalType": "struct Market.MarketItem[]",
          "name": "",
          "type": "tuple[]"
        }
      ],
      "stateMutability": "view",
      "type": "function",
      "constant": true
    },
    {
      "inputs": [],
      "name": "fetchItemsCreated",
      "outputs": [
        {
          "components": [
            {
              "internalType": "uint256",
              "name": "itemId",
              "type": "uint256"
            },
            {
              "internalType": "address",
              "name": "nftContract",
              "type": "address"
            },
            {
              "internalType": "uint256",
              "name": "tokenId",
              "type": "uint256"
            },
            {
              "internalType": "address payable",
              "name": "seller",
              "type": "address"
            },
            {
              "internalType": "address payable",
              "name": "owner",
              "type": "address"
            },
            {
              "internalType": "uint256",
              "name": "price",
              "type": "uint256"
            },
            {
              "internalType": "bool",
              "name": "on_sale",
              "type": "bool"
            },
            {
              "internalType": "uint256",
              "name": "no_of_transfers",
              "type": "uint256"
            },
            {
              "internalType": "uint256",
              "name": "likes",
              "type": "uint256"
            },
            {
              "internalType": "address payable",
              "name": "mintedby",
              "type": "address"
            },
            {
              "internalType": "uint256",
              "name": "ranking",
              "type": "uint256"
            }
          ],
          "internalType": "struct Market.MarketItem[]",
          "name": "",
          "type": "tuple[]"
        }
      ],
      "stateMutability": "view",
      "type": "function",
      "constant": true
    },
    {
      "inputs": [],
      "name": "fetchMyNFTs",
      "outputs": [
        {
          "components": [
            {
              "internalType": "uint256",
              "name": "itemId",
              "type": "uint256"
            },
            {
              "internalType": "address",
              "name": "nftContract",
              "type": "address"
            },
            {
              "internalType": "uint256",
              "name": "tokenId",
              "type": "uint256"
            },
            {
              "internalType": "address payable",
              "name": "seller",
              "type": "address"
            },
            {
              "internalType": "address payable",
              "name": "owner",
              "type": "address"
            },
            {
              "internalType": "uint256",
              "name": "price",
              "type": "uint256"
            },
            {
              "internalType": "bool",
              "name": "on_sale",
              "type": "bool"
            },
            {
              "internalType": "uint256",
              "name": "no_of_transfers",
              "type": "uint256"
            },
            {
              "internalType": "uint256",
              "name": "likes",
              "type": "uint256"
            },
            {
              "internalType": "address payable",
              "name": "mintedby",
              "type": "address"
            },
            {
              "internalType": "uint256",
              "name": "ranking",
              "type": "uint256"
            }
          ],
          "internalType": "struct Market.MarketItem[]",
          "name": "",
          "type": "tuple[]"
        }
      ],
      "stateMutability": "view",
      "type": "function",
      "constant": true
    },
    {
      "inputs": [
        {
          "internalType": "address",
          "name": "nftContract",
          "type": "address"
        },
        {
          "internalType": "uint256",
          "name": "_tokenId",
          "type": "uint256"
        },
        {
          "internalType": "uint256",
          "name": "price",
          "type": "uint256"
        }
      ],
      "name": "sell_nft",
      "outputs": [],
      "stateMutability": "payable",
      "type": "function",
      "payable": true
    },
    {
      "inputs": [
        {
          "internalType": "uint256",
          "name": "_tokenId",
          "type": "uint256"
        },
        {
          "internalType": "string",
          "name": "_address",
          "type": "string"
        }
      ],
      "name": "increase_likes",
      "outputs": [],
      "stateMutability": "payable",
      "type": "function",
      "payable": true
    },
    {
      "inputs": [
        {
          "internalType": "uint256",
          "name": "_tokenId",
          "type": "uint256"
        },
        {
          "internalType": "string",
          "name": "_address",
          "type": "string"
        }
      ],
      "name": "check_likes",
      "outputs": [
        {
          "internalType": "uint256",
          "name": "",
          "type": "uint256"
        }
      ],
      "stateMutability": "view",
      "type": "function",
      "constant": true
    },
    {
      "inputs": [
        {
          "internalType": "address",
          "name": "nftContract",
          "type": "address"
        },
        {
          "internalType": "uint256",
          "name": "_tokenId",
          "type": "uint256"
        }
      ],
      "name": "remove_nft",
      "outputs": [],
      "stateMutability": "payable",
      "type": "function",
      "payable": true
    },
    {
      "inputs": [
        {
          "internalType": "uint256",
          "name": "_tokenId",
          "type": "uint256"
        },
        {
          "internalType": "uint256",
          "name": "price",
          "type": "uint256"
        }
      ],
      "name": "change_price",
      "outputs": [],
      "stateMutability": "payable",
      "type": "function",
      "payable": true
    }
  ],
  "bytecode": "0x608060405260006003556658d15e1762800060055534801561002057600080fd5b50600160008190555033600460006101000a81548173ffffffffffffffffffffffffffffffffffffffff021916908373ffffffffffffffffffffffffffffffffffffffff1602179055506123f8806100796000396000f3fe60806040526004361061009c5760003560e01c806390b754e31161006457806390b754e31461017b57806392083b9114610197578063a4355656146101b3578063c23b139e146101cf578063c9da67f2146101eb578063f064c32e146102075761009c565b806306c2f432146100a15780630f08efe0146100de57806312e8558514610109578063202e374014610134578063879935911461015f575b600080fd5b3480156100ad57600080fd5b506100c860048036038101906100c39190611bc2565b610232565b6040516100d5919061210d565b60405180910390f35b3480156100ea57600080fd5b506100f361026c565b604051610100919061206b565b60405180910390f35b34801561011557600080fd5b5061011e610607565b60405161012b919061210d565b60405180910390f35b34801561014057600080fd5b50610149610611565b604051610156919061206b565b60405180910390f35b61017960048036038101906101749190611bc2565b610a20565b005b61019560048036038101906101909190611c16565b610b28565b005b6101b160048036038101906101ac9190611b4b565b610b9d565b005b6101cd60048036038101906101c89190611afc565b610fa4565b005b6101e960048036038101906101e49190611ac0565b611124565b005b61020560048036038101906102009190611ac0565b61140b565b005b34801561021357600080fd5b5061021c611547565b604051610229919061206b565b60405180910390f35b600060076000848152602001908152602001600020826040516102559190611f9f565b908152602001604051809103902054905092915050565b6060600061027a6001611956565b905060008060005b838110156102e957600115156006600060018461029f91906121e9565b815260200190815260200160002060060160009054906101000a900460ff16151514156102d6576001836102d391906121e9565b92505b80806102e1906122ed565b915050610282565b5060008267ffffffffffffffff81111561032c577f4e487b7100000000000000000000000000000000000000000000000000000000600052604160045260246000fd5b60405190808252806020026020018201604052801561036557816020015b61035261197a565b81526020019060019003908161034a5790505b50905060005b848110156105fc57600115156006600060018461038891906121e9565b815260200190815260200160002060060160009054906101000a900460ff16151514156105e95760006001826103be91906121e9565b905060006006600083815260200190815260200160002090508060405180610160016040529081600082015481526020016001820160009054906101000a900473ffffffffffffffffffffffffffffffffffffffff1673ffffffffffffffffffffffffffffffffffffffff1673ffffffffffffffffffffffffffffffffffffffff168152602001600282015481526020016003820160009054906101000a900473ffffffffffffffffffffffffffffffffffffffff1673ffffffffffffffffffffffffffffffffffffffff1673ffffffffffffffffffffffffffffffffffffffff1681526020016004820160009054906101000a900473ffffffffffffffffffffffffffffffffffffffff1673ffffffffffffffffffffffffffffffffffffffff1673ffffffffffffffffffffffffffffffffffffffff168152602001600582015481526020016006820160009054906101000a900460ff1615151515815260200160078201548152602001600882015481526020016009820160009054906101000a900473ffffffffffffffffffffffffffffffffffffffff1673ffffffffffffffffffffffffffffffffffffffff1673ffffffffffffffffffffffffffffffffffffffff168152602001600a820154815250508486815181106105cc577f4e487b7100000000000000000000000000000000000000000000000000000000600052603260045260246000fd5b60200260200101819052506001856105e491906121e9565b945050505b80806105f4906122ed565b91505061036b565b508094505050505090565b6000600554905090565b6060600061061f6001611956565b905060008060005b838110156106c8573373ffffffffffffffffffffffffffffffffffffffff166006600060018461065791906121e9565b815260200190815260200160002060040160009054906101000a900473ffffffffffffffffffffffffffffffffffffffff1673ffffffffffffffffffffffffffffffffffffffff1614156106b5576001836106b291906121e9565b92505b80806106c0906122ed565b915050610627565b5060008267ffffffffffffffff81111561070b577f4e487b7100000000000000000000000000000000000000000000000000000000600052604160045260246000fd5b60405190808252806020026020018201604052801561074457816020015b61073161197a565b8152602001906001900390816107295790505b50905060005b84811015610a15573373ffffffffffffffffffffffffffffffffffffffff166006600060018461077a91906121e9565b815260200190815260200160002060040160009054906101000a900473ffffffffffffffffffffffffffffffffffffffff1673ffffffffffffffffffffffffffffffffffffffff161415610a025760006001826107d791906121e9565b905060006006600083815260200190815260200160002090508060405180610160016040529081600082015481526020016001820160009054906101000a900473ffffffffffffffffffffffffffffffffffffffff1673ffffffffffffffffffffffffffffffffffffffff1673ffffffffffffffffffffffffffffffffffffffff168152602001600282015481526020016003820160009054906101000a900473ffffffffffffffffffffffffffffffffffffffff1673ffffffffffffffffffffffffffffffffffffffff1673ffffffffffffffffffffffffffffffffffffffff1681526020016004820160009054906101000a900473ffffffffffffffffffffffffffffffffffffffff1673ffffffffffffffffffffffffffffffffffffffff1673ffffffffffffffffffffffffffffffffffffffff168152602001600582015481526020016006820160009054906101000a900460ff1615151515815260200160078201548152602001600882015481526020016009820160009054906101000a900473ffffffffffffffffffffffffffffffffffffffff1673ffffffffffffffffffffffffffffffffffffffff1673ffffffffffffffffffffffffffffffffffffffff168152602001600a820154815250508486815181106109e5577f4e487b7100000000000000000000000000000000000000000000000000000000600052603260045260246000fd5b60200260200101819052506001856109fd91906121e9565b945050505b8080610a0d906122ed565b91505061074a565b508094505050505090565b60026000541415610a66576040517f08c379a0000000000000000000000000000000000000000000000000000000008152600401610a5d906120cd565b60405180910390fd5b600260008190555060006007600084815260200190815260200160002082604051610a919190611f9f565b9081526020016040518091039020541415610b1c576001600660008481526020019081526020016000206008016000828254610acd91906121e9565b9250508190555060016007600084815260200190815260200160002082604051610af79190611f9f565b90815260200160405180910390206000828254610b1491906121e9565b925050819055505b60016000819055505050565b60026000541415610b6e576040517f08c379a0000000000000000000000000000000000000000000000000000000008152600401610b65906120cd565b60405180910390fd5b600260008190555080600660008481526020019081526020016000206005018190555060016000819055505050565b60026000541415610be3576040517f08c379a0000000000000000000000000000000000000000000000000000000008152600401610bda906120cd565b60405180910390fd5b600260008190555060008311610c2e576040517f08c379a0000000000000000000000000000000000000000000000000000000008152600401610c25906120ed565b60405180910390fd5b6005543414610c72576040517f08c379a0000000000000000000000000000000000000000000000000000000008152600401610c69906120ad565b60405180910390fd5b610c7c6001611964565b6000610c886001611956565b90506040518061016001604052808281526020018773ffffffffffffffffffffffffffffffffffffffff1681526020018681526020013373ffffffffffffffffffffffffffffffffffffffff168152602001600073ffffffffffffffffffffffffffffffffffffffff1681526020018581526020016001151581526020018481526020018381526020013373ffffffffffffffffffffffffffffffffffffffff1681526020016000815250600660008381526020019081526020016000206000820151816000015560208201518160010160006101000a81548173ffffffffffffffffffffffffffffffffffffffff021916908373ffffffffffffffffffffffffffffffffffffffff1602179055506040820151816002015560608201518160030160006101000a81548173ffffffffffffffffffffffffffffffffffffffff021916908373ffffffffffffffffffffffffffffffffffffffff16021790555060808201518160040160006101000a81548173ffffffffffffffffffffffffffffffffffffffff021916908373ffffffffffffffffffffffffffffffffffffffff16021790555060a0820151816005015560c08201518160060160006101000a81548160ff02191690831515021790555060e0820151816007015561010082015181600801556101208201518160090160006101000a81548173ffffffffffffffffffffffffffffffffffffffff021916908373ffffffffffffffffffffffffffffffffffffffff16021790555061014082015181600a01559050508573ffffffffffffffffffffffffffffffffffffffff166323b872dd3330886040518463ffffffff1660e01b8152600401610f0193929190611fb6565b600060405180830381600087803b158015610f1b57600080fd5b505af1158015610f2f573d6000803e3d6000fd5b50505050848673ffffffffffffffffffffffffffffffffffffffff16827f9d9c4f1fe2a8f155750c1dee0932c9fc92bd1fff30b510059a620e76866c0fc83360008960018a8a336000604051610f8c989796959493929190611fed565b60405180910390a45060016000819055505050505050565b60026000541415610fea576040517f08c379a0000000000000000000000000000000000000000000000000000000008152600401610fe1906120cd565b60405180910390fd5b600260008190555060008111611035576040517f08c379a000000000000000000000000000000000000000000000000000000000815260040161102c906120ed565b60405180910390fd5b6005543414611079576040517f08c379a0000000000000000000000000000000000000000000000000000000008152600401611070906120ad565b60405180910390fd5b60016006600084815260200190815260200160002060060160006101000a81548160ff0219169083151502179055508273ffffffffffffffffffffffffffffffffffffffff166323b872dd3330856040518463ffffffff1660e01b81526004016110e593929190611fb6565b600060405180830381600087803b1580156110ff57600080fd5b505af1158015611113573d6000803e3d6000fd5b505050506001600081905550505050565b6002600054141561116a576040517f08c379a0000000000000000000000000000000000000000000000000000000008152600401611161906120cd565b60405180910390fd5b60026000819055506000600660008381526020019081526020016000206005015490506000600660008481526020019081526020016000206002015490508134146111ea576040517f08c379a00000000000000000000000000000000000000000000000000000000081526004016111e19061208d565b60405180910390fd5b6006600084815260200190815260200160002060030160009054906101000a900473ffffffffffffffffffffffffffffffffffffffff1673ffffffffffffffffffffffffffffffffffffffff166108fc349081150290604051600060405180830381858888f19350505050158015611266573d6000803e3d6000fd5b508373ffffffffffffffffffffffffffffffffffffffff166323b872dd3033846040518463ffffffff1660e01b81526004016112a493929190611fb6565b600060405180830381600087803b1580156112be57600080fd5b505af11580156112d2573d6000803e3d6000fd5b50505050336006600085815260200190815260200160002060040160006101000a81548173ffffffffffffffffffffffffffffffffffffffff021916908373ffffffffffffffffffffffffffffffffffffffff16021790555060006006600085815260200190815260200160002060060160006101000a81548160ff021916908315150217905550600160066000858152602001908152602001600020600701600082825461138191906121e9565b925050819055506113926002611964565b600460009054906101000a900473ffffffffffffffffffffffffffffffffffffffff1673ffffffffffffffffffffffffffffffffffffffff166108fc6005549081150290604051600060405180830381858888f193505050501580156113fc573d6000803e3d6000fd5b50505060016000819055505050565b60026000541415611451576040517f08c379a0000000000000000000000000000000000000000000000000000000008152600401611448906120cd565b60405180910390fd5b6002600081905550600554341461149d576040517f08c379a0000000000000000000000000000000000000000000000000000000008152600401611494906120ad565b60405180910390fd5b60006006600083815260200190815260200160002060060160006101000a81548160ff0219169083151502179055508173ffffffffffffffffffffffffffffffffffffffff166323b872dd3033846040518463ffffffff1660e01b815260040161150993929190611fb6565b600060405180830381600087803b15801561152357600080fd5b505af1158015611537573d6000803e3d6000fd5b5050505060016000819055505050565b606060006115556001611956565b905060008060005b838110156115fe573373ffffffffffffffffffffffffffffffffffffffff166006600060018461158d91906121e9565b815260200190815260200160002060030160009054906101000a900473ffffffffffffffffffffffffffffffffffffffff1673ffffffffffffffffffffffffffffffffffffffff1614156115eb576001836115e891906121e9565b92505b80806115f6906122ed565b91505061155d565b5060008267ffffffffffffffff811115611641577f4e487b7100000000000000000000000000000000000000000000000000000000600052604160045260246000fd5b60405190808252806020026020018201604052801561167a57816020015b61166761197a565b81526020019060019003908161165f5790505b50905060005b8481101561194b573373ffffffffffffffffffffffffffffffffffffffff16600660006001846116b091906121e9565b815260200190815260200160002060030160009054906101000a900473ffffffffffffffffffffffffffffffffffffffff1673ffffffffffffffffffffffffffffffffffffffff16141561193857600060018261170d91906121e9565b905060006006600083815260200190815260200160002090508060405180610160016040529081600082015481526020016001820160009054906101000a900473ffffffffffffffffffffffffffffffffffffffff1673ffffffffffffffffffffffffffffffffffffffff1673ffffffffffffffffffffffffffffffffffffffff168152602001600282015481526020016003820160009054906101000a900473ffffffffffffffffffffffffffffffffffffffff1673ffffffffffffffffffffffffffffffffffffffff1673ffffffffffffffffffffffffffffffffffffffff1681526020016004820160009054906101000a900473ffffffffffffffffffffffffffffffffffffffff1673ffffffffffffffffffffffffffffffffffffffff1673ffffffffffffffffffffffffffffffffffffffff168152602001600582015481526020016006820160009054906101000a900460ff1615151515815260200160078201548152602001600882015481526020016009820160009054906101000a900473ffffffffffffffffffffffffffffffffffffffff1673ffffffffffffffffffffffffffffffffffffffff1673ffffffffffffffffffffffffffffffffffffffff168152602001600a8201548152505084868151811061191b577f4e487b7100000000000000000000000000000000000000000000000000000000600052603260045260246000fd5b602002602001018190525060018561193391906121e9565b945050505b8080611943906122ed565b915050611680565b508094505050505090565b600081600001549050919050565b6001816000016000828254019250508190555050565b60405180610160016040528060008152602001600073ffffffffffffffffffffffffffffffffffffffff16815260200160008152602001600073ffffffffffffffffffffffffffffffffffffffff168152602001600073ffffffffffffffffffffffffffffffffffffffff168152602001600081526020016000151581526020016000815260200160008152602001600073ffffffffffffffffffffffffffffffffffffffff168152602001600081525090565b6000611a41611a3c84612159565b612128565b905082815260208101848484011115611a5957600080fd5b611a648482856122ab565b509392505050565b600081359050611a7b81612394565b92915050565b600082601f830112611a9257600080fd5b8135611aa2848260208601611a2e565b91505092915050565b600081359050611aba816123ab565b92915050565b60008060408385031215611ad357600080fd5b6000611ae185828601611a6c565b9250506020611af285828601611aab565b9150509250929050565b600080600060608486031215611b1157600080fd5b6000611b1f86828701611a6c565b9350506020611b3086828701611aab565b9250506040611b4186828701611aab565b9150509250925092565b600080600080600060a08688031215611b6357600080fd5b6000611b7188828901611a6c565b9550506020611b8288828901611aab565b9450506040611b9388828901611aab565b9350506060611ba488828901611aab565b9250506080611bb588828901611aab565b9150509295509295909350565b60008060408385031215611bd557600080fd5b6000611be385828601611aab565b925050602083013567ffffffffffffffff811115611c0057600080fd5b611c0c85828601611a81565b9150509250929050565b60008060408385031215611c2957600080fd5b6000611c3785828601611aab565b9250506020611c4885828601611aab565b9150509250929050565b6000611c5e8383611ea0565b6101608301905092915050565b611c7481612251565b82525050565b611c838161223f565b82525050565b611c928161223f565b82525050565b6000611ca382612199565b611cad81856121bc565b9350611cb883612189565b8060005b83811015611ce9578151611cd08882611c52565b9750611cdb836121af565b925050600181019050611cbc565b5085935050505092915050565b611cff81612263565b82525050565b611d0e81612263565b82525050565b611d1d81612299565b82525050565b6000611d2e826121a4565b611d3881856121de565b9350611d488185602086016122ba565b80840191505092915050565b6000611d616040836121cd565b91507f506c65617365207375626d6974207468652061736b696e67207072696365206960008301527f6e206f7264657220746f20636f6d706c657465207468652070757263686173656020830152604082019050919050565b6000611dc76024836121cd565b91507f5072696365206d75737420626520657175616c20746f206c697374696e67207060008301527f72696365000000000000000000000000000000000000000000000000000000006020830152604082019050919050565b6000611e2d601f836121cd565b91507f5265656e7472616e637947756172643a207265656e7472616e742063616c6c006000830152602082019050919050565b6000611e6d601c836121cd565b91507f5072696365206d757374206265206174206c65617374203120776569000000006000830152602082019050919050565b61016082016000820151611eb76000850182611f81565b506020820151611eca6020850182611c7a565b506040820151611edd6040850182611f81565b506060820151611ef06060850182611c6b565b506080820151611f036080850182611c6b565b5060a0820151611f1660a0850182611f81565b5060c0820151611f2960c0850182611cf6565b5060e0820151611f3c60e0850182611f81565b50610100820151611f51610100850182611f81565b50610120820151611f66610120850182611c6b565b50610140820151611f7b610140850182611f81565b50505050565b611f8a8161228f565b82525050565b611f998161228f565b82525050565b6000611fab8284611d23565b915081905092915050565b6000606082019050611fcb6000830186611c89565b611fd86020830185611c89565b611fe56040830184611f90565b949350505050565b600061010082019050612003600083018b611c89565b612010602083018a611c89565b61201d6040830189611f90565b61202a6060830188611d05565b6120376080830187611f90565b61204460a0830186611f90565b61205160c0830185611c89565b61205e60e0830184611d14565b9998505050505050505050565b600060208201905081810360008301526120858184611c98565b905092915050565b600060208201905081810360008301526120a681611d54565b9050919050565b600060208201905081810360008301526120c681611dba565b9050919050565b600060208201905081810360008301526120e681611e20565b9050919050565b6000602082019050818103600083015261210681611e60565b9050919050565b60006020820190506121226000830184611f90565b92915050565b6000604051905081810181811067ffffffffffffffff8211171561214f5761214e612365565b5b8060405250919050565b600067ffffffffffffffff82111561217457612173612365565b5b601f19601f8301169050602081019050919050565b6000819050602082019050919050565b600081519050919050565b600081519050919050565b6000602082019050919050565b600082825260208201905092915050565b600082825260208201905092915050565b600081905092915050565b60006121f48261228f565b91506121ff8361228f565b9250827fffffffffffffffffffffffffffffffffffffffffffffffffffffffffffffffff0382111561223457612233612336565b5b828201905092915050565b600061224a8261226f565b9050919050565b600061225c8261226f565b9050919050565b60008115159050919050565b600073ffffffffffffffffffffffffffffffffffffffff82169050919050565b6000819050919050565b60006122a48261228f565b9050919050565b82818337600083830152505050565b60005b838110156122d85780820151818401526020810190506122bd565b838111156122e7576000848401525b50505050565b60006122f88261228f565b91507fffffffffffffffffffffffffffffffffffffffffffffffffffffffffffffffff82141561232b5761232a612336565b5b600182019050919050565b7f4e487b7100000000000000000000000000000000000000000000000000000000600052601160045260246000fd5b7f4e487b7100000000000000000000000000000000000000000000000000000000600052604160045260246000fd5b61239d8161223f565b81146123a857600080fd5b50565b6123b48161228f565b81146123bf57600080fd5b5056fea26469706673582212203628144f5ca6a53406ff5b73026f7207cbf7d27b2fc6ba7fdaa2074854ba8be464736f6c63430008000033",
  "immutableReferences": {},
  "source": "// SPDX-License-Identifier: MIT OR Apache-2.0\npragma solidity >=0.4.22 <0.9.0;\n\nimport \"@openzeppelin/contracts/utils/Counters.sol\";\nimport \"@openzeppelin/contracts/security/ReentrancyGuard.sol\";\nimport \"@openzeppelin/contracts/token/ERC721/ERC721.sol\";\n\nimport \"hardhat/console.sol\";\n\ncontract Market is ReentrancyGuard {\n  using Counters for Counters.Counter;\n  Counters.Counter private _itemIds;\n  Counters.Counter private _itemsSold;\n\n  uint randNonce = 0;\n  address payable owner;\n  uint256 listingPrice = 0.025 ether;\n\n  constructor() {\n    owner = payable(msg.sender);\n  }\n\n  struct MarketItem {\n    uint itemId;\n    address nftContract;\n    uint256 tokenId;\n    address payable seller;\n    address payable owner;\n    uint256 price;\n    bool on_sale;\n    uint no_of_transfers;\n    uint likes;\n    address payable mintedby;\n    uint ranking;\n  }\n\n  mapping(uint256 => MarketItem) private idToMarketItem;\n  mapping(uint256 => mapping(string => uint256)) private like_addresses;\n  mapping(uint256 => uint256) private rankings;\n\n  event MarketItemCreated (\n    uint indexed itemId,\n    address indexed nftContract,\n    uint256 indexed tokenId,\n    address seller,\n    address owner,\n    uint256 price,\n    bool on_sale,\n    uint no_of_transfers,\n    uint likes,\n    address mintedby,\n    uint ranking\n  );\n\n  function getListingPrice() public view returns (uint256) {\n    return listingPrice;\n  }\n\n  function randMod(uint _modulus) internal returns(uint)\n{ \n   randNonce++; \n   return uint(keccak256(abi.encodePacked(block.timestamp,msg.sender,randNonce))) % _modulus;\n }\n\n  function createMarketItem(\n    address nftContract,\n    uint256 tokenId,\n    uint256 price,\n    uint256 no_of_transfers,\n    uint256 likes\n  ) public payable nonReentrant {\n    require(price > 0, \"Price must be at least 1 wei\");\n    require(msg.value == listingPrice, \"Price must be equal to listing price\");\n\n    _itemIds.increment();\n    uint256 itemId = _itemIds.current();\n  \n    idToMarketItem[itemId] =  MarketItem(\n      itemId,\n      nftContract,\n      tokenId,\n      payable(msg.sender),\n      payable(address(0)),\n      price,\n      true,\n      no_of_transfers,\n      likes,\n      payable(msg.sender),\n      0\n    );\n\n    IERC721(nftContract).transferFrom(msg.sender, address(this), tokenId);\n\n    emit MarketItemCreated(\n      itemId,\n      nftContract,\n      tokenId,\n      msg.sender,\n      address(0),\n      price,\n      true,\n      no_of_transfers,\n      likes,\n      msg.sender,\n      0\n    );\n  }\n\n  function createMarketSale(\n    address nftContract,\n    uint256 itemId\n    ) public payable nonReentrant {\n    uint price = idToMarketItem[itemId].price;\n    uint tokenId = idToMarketItem[itemId].tokenId;\n    require(msg.value == price, \"Please submit the asking price in order to complete the purchase\");\n\n    idToMarketItem[itemId].seller.transfer(msg.value);\n    IERC721(nftContract).transferFrom(address(this), msg.sender, tokenId);\n    idToMarketItem[itemId].owner = payable(msg.sender);\n    idToMarketItem[itemId].on_sale = false;\n    idToMarketItem[itemId].no_of_transfers += 1;\n    _itemsSold.increment();\n    payable(owner).transfer(listingPrice);\n  }\n\n  function fetchMarketItems() public view returns (MarketItem[] memory) {\n    uint totalItemCount = _itemIds.current();\n    uint itemCount = 0;\n    uint currentIndex = 0;\n\n    for (uint i = 0; i < totalItemCount; i++) {\n      if (idToMarketItem[i + 1].on_sale == true) {\n        itemCount += 1;\n      }\n    }\n\n    MarketItem[] memory items = new MarketItem[](itemCount);\n    for (uint i = 0; i < totalItemCount; i++) {\n      if (idToMarketItem[i + 1].on_sale == true) {\n        uint currentId = i + 1;\n        MarketItem storage currentItem = idToMarketItem[currentId];\n        items[currentIndex] = currentItem;\n        currentIndex += 1;\n      }\n    }\n    return items;\n  }\n\n  function fetchItemsCreated() public view returns (MarketItem[] memory) {\n    uint totalItemCount = _itemIds.current();\n    uint itemCount = 0;\n    uint currentIndex = 0;\n\n    for (uint i = 0; i < totalItemCount; i++) {\n      if (idToMarketItem[i + 1].seller == msg.sender) {\n        itemCount += 1;\n      }\n    }\n\n    MarketItem[] memory items = new MarketItem[](itemCount);\n    for (uint i = 0; i < totalItemCount; i++) {\n      if (idToMarketItem[i + 1].seller == msg.sender) {\n        uint currentId = i + 1;\n        MarketItem storage currentItem = idToMarketItem[currentId];\n        items[currentIndex] = currentItem;\n        currentIndex += 1;\n      }\n    }\n    return items;\n  }\n\n  function fetchMyNFTs() public view returns (MarketItem[] memory) {\n    uint totalItemCount = _itemIds.current();\n    uint itemCount = 0;\n    uint currentIndex = 0;\n\n    for (uint i = 0; i < totalItemCount; i++) {\n      if (idToMarketItem[i + 1].owner == msg.sender) {\n        itemCount += 1;\n      }\n    }\n\n    MarketItem[] memory items = new MarketItem[](itemCount);\n    for (uint i = 0; i < totalItemCount; i++) {\n      if (idToMarketItem[i + 1].owner == msg.sender) {\n        uint currentId = i + 1;\n        MarketItem storage currentItem = idToMarketItem[currentId];\n        items[currentIndex] = currentItem;\n        currentIndex += 1;\n      }\n    }\n    return items;\n  }\n\n  function sell_nft(address nftContract , uint256 _tokenId , uint256 price) public payable nonReentrant{\n      require(price > 0, \"Price must be at least 1 wei\");\n      require(msg.value == listingPrice, \"Price must be equal to listing price\");\n      idToMarketItem[_tokenId].on_sale = true;\n      IERC721(nftContract).transferFrom(msg.sender, address(this), _tokenId);\n  }\n\n  function increase_likes(uint256 _tokenId , string memory _address) public payable nonReentrant {\n      if(like_addresses[_tokenId][_address] == 0){\n        idToMarketItem[_tokenId].likes+=1;\n        like_addresses[_tokenId][_address] +=1;\n      }\n  }\n\n  function check_likes(uint256 _tokenId , string memory _address) public view returns(uint){\n    return like_addresses[_tokenId][_address];\n  }\n\n  function remove_nft(address nftContract , uint256 _tokenId) public payable nonReentrant{\n      require(msg.value == listingPrice, \"Price must be equal to listing price\");\n      idToMarketItem[_tokenId].on_sale = false;\n      IERC721(nftContract).transferFrom(address(this), msg.sender, _tokenId);\n  }\n\n  function change_price(uint256 _tokenId , uint256 price) public payable nonReentrant {\n      idToMarketItem[_tokenId].price = price;\n  }\n  \n}",
  "sourcePath": "F:\\project\\uniqart_project\\Uniqart\\src\\contracts\\Market.sol",
  "compiler": {
    "name": "solc",
    "version": "0.8.0+commit.c7dfd78e.Emscripten.clang"
  },
  "schemaVersion": "3.4.8",
  "updatedAt": "2022-08-27T14:42:52.492Z",
  "networkType": "ethereum",
  "devdoc": {
    "kind": "dev",
    "methods": {},
    "version": 1
  },
  "userdoc": {
    "kind": "user",
    "methods": {},
    "version": 1
  }
}